{
  "address": "0x19A5814E7629B466D8084DDe98979c38d9c1329c",
  "abi": [
    {
      "inputs": [],
      "stateMutability": "nonpayable",
      "type": "constructor"
    },
    {
      "inputs": [],
      "name": "CidDoc",
      "outputs": [
        {
          "internalType": "string",
          "name": "",
          "type": "string"
        }
      ],
      "stateMutability": "view",
      "type": "function"
    },
    {
      "inputs": [],
      "name": "CidForms",
      "outputs": [
        {
          "internalType": "string",
          "name": "",
          "type": "string"
        }
      ],
      "stateMutability": "view",
      "type": "function"
    },
    {
      "inputs": [],
      "name": "isSigned",
      "outputs": [
        {
          "internalType": "bool",
          "name": "",
          "type": "bool"
        }
      ],
      "stateMutability": "view",
      "type": "function"
    },
    {
      "inputs": [
        {
          "internalType": "string",
          "name": "_CidDoc",
          "type": "string"
        }
      ],
      "name": "setCidDoc",
      "outputs": [],
      "stateMutability": "nonpayable",
      "type": "function"
    },
    {
      "inputs": [
        {
          "internalType": "string",
          "name": "_CidForms",
          "type": "string"
        }
      ],
      "name": "setCidForms",
      "outputs": [],
      "stateMutability": "nonpayable",
      "type": "function"
    },
    {
      "inputs": [],
      "name": "signContract",
      "outputs": [],
      "stateMutability": "nonpayable",
      "type": "function"
    }
  ],
  "transactionHash": "0x83a113fb00229f237e9bacd81ce147e3bce3c3383c78eff5bff7558c17f74648",
  "args": [],
  "numDeployments": 2,
  "solcInputHash": "c75901d4cbb6a157f9c252bd4f009354",
  "bytecode": "0x608060405234801561001057600080fd5b506002805460ff191690556104e28061002a6000396000f3fe608060405234801561001057600080fd5b50600436106100625760003560e01c80632e6896821461006757806336c12c59146100855780634eb6ae641461008d578063b8b4f1a0146100a2578063ca0f8544146100aa578063e66a6b22146100bd575b600080fd5b61006f6100da565b60405161007c919061024e565b60405180910390f35b61006f610168565b6100a061009b3660046102b2565b610175565b005b6100a0610185565b6100a06100b83660046102b2565b610242565b6002546100ca9060ff1681565b604051901515815260200161007c565b600180546100e790610363565b80601f016020809104026020016040519081016040528092919081815260200182805461011390610363565b80156101605780601f1061013557610100808354040283529160200191610160565b820191906000526020600020905b81548152906001019060200180831161014357829003601f168201915b505050505081565b600080546100e790610363565b600061018182826103ec565b5050565b60006001805461019490610363565b9050116101e85760405162461bcd60e51b815260206004820152601a60248201527f436964446f63206e616f20706f6465207365722076617a696f2e00000000000060448201526064015b60405180910390fd5b60025460ff16156102335760405162461bcd60e51b815260206004820152601560248201527421b7b73a3930ba379035309030b9b9b4b730b2379760591b60448201526064016101df565b6002805460ff19166001179055565b600161018182826103ec565b600060208083528351808285015260005b8181101561027b5785810183015185820160400152820161025f565b506000604082860101526040601f19601f8301168501019250505092915050565b634e487b7160e01b600052604160045260246000fd5b6000602082840312156102c457600080fd5b813567ffffffffffffffff808211156102dc57600080fd5b818401915084601f8301126102f057600080fd5b8135818111156103025761030261029c565b604051601f8201601f19908116603f0116810190838211818310171561032a5761032a61029c565b8160405282815287602084870101111561034357600080fd5b826020860160208301376000928101602001929092525095945050505050565b600181811c9082168061037757607f821691505b60208210810361039757634e487b7160e01b600052602260045260246000fd5b50919050565b601f8211156103e757600081815260208120601f850160051c810160208610156103c45750805b601f850160051c820191505b818110156103e3578281556001016103d0565b5050505b505050565b815167ffffffffffffffff8111156104065761040661029c565b61041a816104148454610363565b8461039d565b602080601f83116001811461044f57600084156104375750858301515b600019600386901b1c1916600185901b1785556103e3565b600085815260208120601f198616915b8281101561047e5788860151825594840194600190910190840161045f565b508582101561049c5787850151600019600388901b60f8161c191681555b5050505050600190811b0190555056fea264697066735822122030719ea89fe4923bd439a05cfc6ae1cbddaf3b03e43ea11154a50239e94860bd64736f6c63430008140033",
  "devdoc": {
    "kind": "dev",
    "methods": {},
    "version": 1
  },
  "userdoc": {
    "kind": "user",
    "methods": {},
    "version": 1
  },
  "storageLayout": {
    "storage": [
      {
        "astId": 3,
        "contract": "contracts/CartorioDigital.sol:CartorioDigital",
        "label": "CidForms",
        "offset": 0,
        "slot": "0",
        "type": "t_string_storage"
      },
      {
        "astId": 5,
        "contract": "contracts/CartorioDigital.sol:CartorioDigital",
        "label": "CidDoc",
        "offset": 0,
        "slot": "1",
        "type": "t_string_storage"
      },
      {
        "astId": 7,
        "contract": "contracts/CartorioDigital.sol:CartorioDigital",
        "label": "isSigned",
        "offset": 0,
        "slot": "2",
        "type": "t_bool"
      }
    ],
    "types": {
      "t_bool": {
        "encoding": "inplace",
        "label": "bool",
        "numberOfBytes": "1"
      },
      "t_string_storage": {
        "encoding": "bytes",
        "label": "string",
        "numberOfBytes": "32"
      }
    }
  }
}