{
  "address": "0x053c3bf65a4012a7875dc67B039d50865Bb9A2ed",
  "abi": [
    {
      "inputs": [
        {
          "internalType": "address[]",
          "name": "_signers",
          "type": "address[]"
        }
      ],
      "stateMutability": "nonpayable",
      "type": "constructor"
    },
    {
      "anonymous": false,
      "inputs": [
        {
          "indexed": true,
          "internalType": "address",
          "name": "owner",
          "type": "address"
        },
        {
          "indexed": true,
          "internalType": "address",
          "name": "approved",
          "type": "address"
        },
        {
          "indexed": true,
          "internalType": "uint256",
          "name": "tokenId",
          "type": "uint256"
        }
      ],
      "name": "Approval",
      "type": "event"
    },
    {
      "anonymous": false,
      "inputs": [
        {
          "indexed": true,
          "internalType": "address",
          "name": "owner",
          "type": "address"
        },
        {
          "indexed": true,
          "internalType": "address",
          "name": "operator",
          "type": "address"
        },
        {
          "indexed": false,
          "internalType": "bool",
          "name": "approved",
          "type": "bool"
        }
      ],
      "name": "ApprovalForAll",
      "type": "event"
    },
    {
      "anonymous": false,
      "inputs": [
        {
          "indexed": true,
          "internalType": "address",
          "name": "previousOwner",
          "type": "address"
        },
        {
          "indexed": true,
          "internalType": "address",
          "name": "newOwner",
          "type": "address"
        }
      ],
      "name": "OwnershipTransferred",
      "type": "event"
    },
    {
      "anonymous": false,
      "inputs": [
        {
          "indexed": true,
          "internalType": "address",
          "name": "signer",
          "type": "address"
        },
        {
          "indexed": true,
          "internalType": "bytes32",
          "name": "messageHash",
          "type": "bytes32"
        }
      ],
      "name": "SignatureAdded",
      "type": "event"
    },
    {
      "anonymous": false,
      "inputs": [
        {
          "indexed": true,
          "internalType": "address",
          "name": "from",
          "type": "address"
        },
        {
          "indexed": true,
          "internalType": "address",
          "name": "to",
          "type": "address"
        },
        {
          "indexed": true,
          "internalType": "uint256",
          "name": "tokenId",
          "type": "uint256"
        }
      ],
      "name": "Transfer",
      "type": "event"
    },
    {
      "inputs": [
        {
          "internalType": "bytes32",
          "name": "messageHash",
          "type": "bytes32"
        }
      ],
      "name": "addSignature",
      "outputs": [],
      "stateMutability": "nonpayable",
      "type": "function"
    },
    {
      "inputs": [
        {
          "internalType": "address",
          "name": "to",
          "type": "address"
        },
        {
          "internalType": "uint256",
          "name": "tokenId",
          "type": "uint256"
        }
      ],
      "name": "approve",
      "outputs": [],
      "stateMutability": "nonpayable",
      "type": "function"
    },
    {
      "inputs": [
        {
          "internalType": "address",
          "name": "owner",
          "type": "address"
        }
      ],
      "name": "balanceOf",
      "outputs": [
        {
          "internalType": "uint256",
          "name": "",
          "type": "uint256"
        }
      ],
      "stateMutability": "view",
      "type": "function"
    },
    {
      "inputs": [
        {
          "internalType": "uint256",
          "name": "tokenId",
          "type": "uint256"
        }
      ],
      "name": "burn",
      "outputs": [],
      "stateMutability": "nonpayable",
      "type": "function"
    },
    {
      "inputs": [
        {
          "internalType": "address[]",
          "name": "_signers",
          "type": "address[]"
        },
        {
          "internalType": "address",
          "name": "signer",
          "type": "address"
        },
        {
          "internalType": "address",
          "name": "removeSigner",
          "type": "address"
        }
      ],
      "name": "changeSigner",
      "outputs": [
        {
          "internalType": "bool",
          "name": "",
          "type": "bool"
        }
      ],
      "stateMutability": "view",
      "type": "function"
    },
    {
      "inputs": [
        {
          "internalType": "uint256",
          "name": "tokenId",
          "type": "uint256"
        }
      ],
      "name": "getApproved",
      "outputs": [
        {
          "internalType": "address",
          "name": "",
          "type": "address"
        }
      ],
      "stateMutability": "view",
      "type": "function"
    },
    {
      "inputs": [
        {
          "internalType": "bytes32",
          "name": "",
          "type": "bytes32"
        },
        {
          "internalType": "address",
          "name": "",
          "type": "address"
        }
      ],
      "name": "hasSigned",
      "outputs": [
        {
          "internalType": "bool",
          "name": "",
          "type": "bool"
        }
      ],
      "stateMutability": "view",
      "type": "function"
    },
    {
      "inputs": [
        {
          "internalType": "address",
          "name": "owner",
          "type": "address"
        },
        {
          "internalType": "address",
          "name": "operator",
          "type": "address"
        }
      ],
      "name": "isApprovedForAll",
      "outputs": [
        {
          "internalType": "bool",
          "name": "",
          "type": "bool"
        }
      ],
      "stateMutability": "view",
      "type": "function"
    },
    {
      "inputs": [
        {
          "internalType": "bytes32",
          "name": "messageHash",
          "type": "bytes32"
        }
      ],
      "name": "isFullySigned",
      "outputs": [
        {
          "internalType": "bool",
          "name": "",
          "type": "bool"
        }
      ],
      "stateMutability": "view",
      "type": "function"
    },
    {
      "inputs": [
        {
          "internalType": "address",
          "name": "",
          "type": "address"
        }
      ],
      "name": "isSigner",
      "outputs": [
        {
          "internalType": "bool",
          "name": "",
          "type": "bool"
        }
      ],
      "stateMutability": "view",
      "type": "function"
    },
    {
      "inputs": [],
      "name": "name",
      "outputs": [
        {
          "internalType": "string",
          "name": "",
          "type": "string"
        }
      ],
      "stateMutability": "view",
      "type": "function"
    },
    {
      "inputs": [],
      "name": "owner",
      "outputs": [
        {
          "internalType": "address",
          "name": "",
          "type": "address"
        }
      ],
      "stateMutability": "view",
      "type": "function"
    },
    {
      "inputs": [
        {
          "internalType": "uint256",
          "name": "tokenId",
          "type": "uint256"
        }
      ],
      "name": "ownerOf",
      "outputs": [
        {
          "internalType": "address",
          "name": "",
          "type": "address"
        }
      ],
      "stateMutability": "view",
      "type": "function"
    },
    {
      "inputs": [],
      "name": "renounceOwnership",
      "outputs": [],
      "stateMutability": "nonpayable",
      "type": "function"
    },
    {
      "inputs": [
        {
          "internalType": "address",
          "name": "to",
          "type": "address"
        },
        {
          "internalType": "bytes32",
          "name": "messageHash",
          "type": "bytes32"
        }
      ],
      "name": "safeMint",
      "outputs": [],
      "stateMutability": "nonpayable",
      "type": "function"
    },
    {
      "inputs": [
        {
          "internalType": "address",
          "name": "from",
          "type": "address"
        },
        {
          "internalType": "address",
          "name": "to",
          "type": "address"
        },
        {
          "internalType": "uint256",
          "name": "tokenId",
          "type": "uint256"
        }
      ],
      "name": "safeTransferFrom",
      "outputs": [],
      "stateMutability": "nonpayable",
      "type": "function"
    },
    {
      "inputs": [
        {
          "internalType": "address",
          "name": "from",
          "type": "address"
        },
        {
          "internalType": "address",
          "name": "to",
          "type": "address"
        },
        {
          "internalType": "uint256",
          "name": "tokenId",
          "type": "uint256"
        },
        {
          "internalType": "bytes",
          "name": "data",
          "type": "bytes"
        }
      ],
      "name": "safeTransferFrom",
      "outputs": [],
      "stateMutability": "nonpayable",
      "type": "function"
    },
    {
      "inputs": [
        {
          "internalType": "address",
          "name": "operator",
          "type": "address"
        },
        {
          "internalType": "bool",
          "name": "approved",
          "type": "bool"
        }
      ],
      "name": "setApprovalForAll",
      "outputs": [],
      "stateMutability": "nonpayable",
      "type": "function"
    },
    {
      "inputs": [
        {
          "internalType": "uint256",
          "name": "",
          "type": "uint256"
        }
      ],
      "name": "signers",
      "outputs": [
        {
          "internalType": "address",
          "name": "",
          "type": "address"
        }
      ],
      "stateMutability": "view",
      "type": "function"
    },
    {
      "inputs": [
        {
          "internalType": "bytes4",
          "name": "interfaceId",
          "type": "bytes4"
        }
      ],
      "name": "supportsInterface",
      "outputs": [
        {
          "internalType": "bool",
          "name": "",
          "type": "bool"
        }
      ],
      "stateMutability": "view",
      "type": "function"
    },
    {
      "inputs": [],
      "name": "symbol",
      "outputs": [
        {
          "internalType": "string",
          "name": "",
          "type": "string"
        }
      ],
      "stateMutability": "view",
      "type": "function"
    },
    {
      "inputs": [
        {
          "internalType": "uint256",
          "name": "tokenId",
          "type": "uint256"
        }
      ],
      "name": "tokenURI",
      "outputs": [
        {
          "internalType": "string",
          "name": "",
          "type": "string"
        }
      ],
      "stateMutability": "view",
      "type": "function"
    },
    {
      "inputs": [
        {
          "internalType": "address",
          "name": "from",
          "type": "address"
        },
        {
          "internalType": "address",
          "name": "to",
          "type": "address"
        },
        {
          "internalType": "uint256",
          "name": "tokenId",
          "type": "uint256"
        }
      ],
      "name": "transferFrom",
      "outputs": [],
      "stateMutability": "nonpayable",
      "type": "function"
    },
    {
      "inputs": [
        {
          "internalType": "address",
          "name": "newOwner",
          "type": "address"
        }
      ],
      "name": "transferOwnership",
      "outputs": [],
      "stateMutability": "nonpayable",
      "type": "function"
    }
  ],
  "transactionHash": "0x6faf991f470a86340f68c3c42fafd228f7f143ffd1212423eb1dec0e2a52fa56",
  "args": [
    [
      "0x8626f6940E2eb28930eFb4CeF49B2d1F2C9C1199",
      "0xdD2FD4581271e230360230F9337D5c0430Bf44C0"
    ]
  ],
  "numDeployments": 1,
  "solcInputHash": "25a3d3f5185b9252db8da8123e941e0c",
  "bytecode": "0x60806040523480156200001157600080fd5b5060405162001eef38038062001eef833981016040819052620000349162000216565b6040518060400160405280601781526020017f537570706c795472616e73706572656e6379546f6b656e0000000000000000008152506040518060400160405280600381526020016214d51560ea1b815250816000908162000097919062000377565b506001620000a6828262000377565b505050620000c3620000bd6200018d60201b60201c565b62000191565b60005b815181101562000185576008828281518110620000e757620000e762000443565b60209081029190910181015182546001808201855560009485529284200180546001600160a01b0319166001600160a01b03909216919091179055835190916009918590859081106200013e576200013e62000443565b6020908102919091018101516001600160a01b03168252810191909152604001600020805460ff1916911515919091179055806200017c8162000459565b915050620000c6565b505062000481565b3390565b600680546001600160a01b038381166001600160a01b0319831681179093556040519116919082907f8be0079c531659141344cd1fd0a4f28419497f9722a3daafe3b4186f6b6457e090600090a35050565b634e487b7160e01b600052604160045260246000fd5b80516001600160a01b03811681146200021157600080fd5b919050565b600060208083850312156200022a57600080fd5b82516001600160401b03808211156200024257600080fd5b818501915085601f8301126200025757600080fd5b8151818111156200026c576200026c620001e3565b8060051b604051601f19603f83011681018181108582111715620002945762000294620001e3565b604052918252848201925083810185019188831115620002b357600080fd5b938501935b82851015620002dc57620002cc85620001f9565b84529385019392850192620002b8565b98975050505050505050565b600181811c90821680620002fd57607f821691505b6020821081036200031e57634e487b7160e01b600052602260045260246000fd5b50919050565b601f8211156200037257600081815260208120601f850160051c810160208610156200034d5750805b601f850160051c820191505b818110156200036e5782815560010162000359565b5050505b505050565b81516001600160401b03811115620003935762000393620001e3565b620003ab81620003a48454620002e8565b8462000324565b602080601f831160018114620003e35760008415620003ca5750858301515b600019600386901b1c1916600185901b1785556200036e565b600085815260208120601f198616915b828110156200041457888601518255948401946001909101908401620003f3565b5085821015620004335787850151600019600388901b60f8161c191681555b5050505050600190811b01905550565b634e487b7160e01b600052603260045260246000fd5b6000600182016200047a57634e487b7160e01b600052601160045260246000fd5b5060010190565b611a5e80620004916000396000f3fe608060405234801561001057600080fd5b50600436106101585760003560e01c80636dba4807116100c3578063a18f96881161007c578063a18f968814610305578063a22cb46514610318578063b88d4fde1461032b578063c87b56dd1461033e578063e985e9c514610351578063f2fde38b1461038d57600080fd5b80636dba48071461028d57806370a08231146102a0578063715018a6146102c15780637df73e27146102c95780638da5cb5b146102ec57806395d89b41146102fd57600080fd5b8063255b5cd911610115578063255b5cd91461020057806329832c0f1461021357806342842e0e1461024157806342966c68146102545780636352211e1461026757806367d51cc41461027a57600080fd5b806301ffc9a71461015d57806306fdde0314610185578063081812fc1461019a578063095ea7b3146101c55780632079fb9a146101da57806323b872dd146101ed575b600080fd5b61017061016b3660046114a6565b6103a0565b60405190151581526020015b60405180910390f35b61018d6103f2565b60405161017c9190611513565b6101ad6101a8366004611526565b610484565b6040516001600160a01b03909116815260200161017c565b6101d86101d336600461155b565b6104ab565b005b6101ad6101e8366004611526565b6105c5565b6101d86101fb366004611585565b6105ef565b61017061020e366004611608565b610621565b6101706102213660046116d7565b600a60209081526000928352604080842090915290825290205460ff1681565b6101d861024f366004611585565b6106bd565b6101d8610262366004611526565b6106d8565b6101ad610275366004611526565b610709565b6101d861028836600461155b565b610769565b6101d861029b366004611526565b6107e7565b6102b36102ae366004611703565b6108fe565b60405190815260200161017c565b6101d8610984565b6101706102d7366004611703565b60096020526000908152604090205460ff1681565b6006546001600160a01b03166101ad565b61018d610998565b610170610313366004611526565b6109a7565b6101d861032636600461171e565b610a2a565b6101d861033936600461175a565b610a39565b61018d61034c366004611526565b610a71565b61017061035f36600461181a565b6001600160a01b03918216600090815260056020908152604080832093909416825291909152205460ff1690565b6101d861039b366004611703565b610ae4565b60006001600160e01b031982166380ac58cd60e01b14806103d157506001600160e01b03198216635b5e139f60e01b145b806103ec57506301ffc9a760e01b6001600160e01b03198316145b92915050565b60606000805461040190611844565b80601f016020809104026020016040519081016040528092919081815260200182805461042d90611844565b801561047a5780601f1061044f5761010080835404028352916020019161047a565b820191906000526020600020905b81548152906001019060200180831161045d57829003601f168201915b5050505050905090565b600061048f82610b5a565b506000908152600460205260409020546001600160a01b031690565b60006104b682610709565b9050806001600160a01b0316836001600160a01b0316036105285760405162461bcd60e51b815260206004820152602160248201527f4552433732313a20617070726f76616c20746f2063757272656e74206f776e656044820152603960f91b60648201526084015b60405180910390fd5b336001600160a01b03821614806105445750610544813361035f565b6105b65760405162461bcd60e51b815260206004820152603d60248201527f4552433732313a20617070726f76652063616c6c6572206973206e6f7420746f60448201527f6b656e206f776e6572206f7220617070726f76656420666f7220616c6c000000606482015260840161051f565b6105c08383610bb9565b505050565b600881815481106105d557600080fd5b6000918252602090912001546001600160a01b0316905081565b6105fa335b82610c27565b6106165760405162461bcd60e51b815260040161051f9061187e565b6105c0838383610ca6565b6000805b6008548110156106b057826001600160a01b031685828151811061064b5761064b6118cb565b60200260200101516001600160a01b03160361069e5783858281518110610674576106746118cb565b60200260200101906001600160a01b031690816001600160a01b03168152505060019150506106b6565b806106a8816118e1565b915050610625565b50600090505b9392505050565b6105c083838360405180602001604052806000815250610a39565b6106e1336105f4565b6106fd5760405162461bcd60e51b815260040161051f9061187e565b61070681610e0a565b50565b6000818152600260205260408120546001600160a01b0316806103ec5760405162461bcd60e51b8152602060048201526018602482015277115490cdcc8c4e881a5b9d985b1a59081d1bdad95b88125160421b604482015260640161051f565b610771610e9f565b61077a816109a7565b6107c65760405162461bcd60e51b815260206004820152601c60248201527f5472616e73616374696f6e206e6f742066756c6c79207369676e656400000000604482015260640161051f565b60078054600091826107d7836118e1565b9190505590506105c08382610ef9565b3360009081526009602052604090205460ff166108465760405162461bcd60e51b815260206004820152601f60248201527f4f6e6c79207369676e6572732063616e20616464207369676e61747572657300604482015260640161051f565b6000818152600a6020908152604080832033845290915290205460ff16156108b05760405162461bcd60e51b815260206004820152601760248201527f5369676e617475726520616c7265616479206164646564000000000000000000604482015260640161051f565b6000818152600a60209081526040808320338085529252808320805460ff191660011790555183927f239f795bdbf221430ed76c684f97bb97a7058941758190635766dbc1938e008791a350565b60006001600160a01b0382166109685760405162461bcd60e51b815260206004820152602960248201527f4552433732313a2061646472657373207a65726f206973206e6f7420612076616044820152683634b21037bbb732b960b91b606482015260840161051f565b506001600160a01b031660009081526003602052604090205490565b61098c610e9f565b6109966000610f13565b565b60606001805461040190611844565b6000805b600854811015610a21576000838152600a6020526040812060088054919291849081106109da576109da6118cb565b60009182526020808320909101546001600160a01b0316835282019290925260400190205460ff16610a0f5750600092915050565b80610a19816118e1565b9150506109ab565b50600192915050565b610a35338383610f65565b5050565b610a433383610c27565b610a5f5760405162461bcd60e51b815260040161051f9061187e565b610a6b84848484611033565b50505050565b6060610a7c82610b5a565b6000610a9360408051602081019091526000815290565b90506000815111610ab357604051806020016040528060008152506106b6565b80610abd84611066565b604051602001610ace929190611908565b6040516020818303038152906040529392505050565b610aec610e9f565b6001600160a01b038116610b515760405162461bcd60e51b815260206004820152602660248201527f4f776e61626c653a206e6577206f776e657220697320746865207a65726f206160448201526564647265737360d01b606482015260840161051f565b61070681610f13565b6000818152600260205260409020546001600160a01b03166107065760405162461bcd60e51b8152602060048201526018602482015277115490cdcc8c4e881a5b9d985b1a59081d1bdad95b88125160421b604482015260640161051f565b600081815260046020526040902080546001600160a01b0319166001600160a01b0384169081179091558190610bee82610709565b6001600160a01b03167f8c5be1e5ebec7d5bd14f71427d1e84f3dd0314c0f7b2291e5b200ac8c7c3b92560405160405180910390a45050565b600080610c3383610709565b9050806001600160a01b0316846001600160a01b03161480610c7a57506001600160a01b0380821660009081526005602090815260408083209388168352929052205460ff165b80610c9e5750836001600160a01b0316610c9384610484565b6001600160a01b0316145b949350505050565b826001600160a01b0316610cb982610709565b6001600160a01b031614610cdf5760405162461bcd60e51b815260040161051f90611937565b6001600160a01b038216610d415760405162461bcd60e51b8152602060048201526024808201527f4552433732313a207472616e7366657220746f20746865207a65726f206164646044820152637265737360e01b606482015260840161051f565b826001600160a01b0316610d5482610709565b6001600160a01b031614610d7a5760405162461bcd60e51b815260040161051f90611937565b600081815260046020908152604080832080546001600160a01b03199081169091556001600160a01b0387811680865260038552838620805460001901905590871680865283862080546001019055868652600290945282852080549092168417909155905184937fddf252ad1be2c89b69c2b068fc378daa952ba7f163c4a11628f55a4df523b3ef91a4505050565b6000610e1582610709565b9050610e2082610709565b600083815260046020908152604080832080546001600160a01b03199081169091556001600160a01b0385168085526003845282852080546000190190558785526002909352818420805490911690555192935084927fddf252ad1be2c89b69c2b068fc378daa952ba7f163c4a11628f55a4df523b3ef908390a45050565b6006546001600160a01b031633146109965760405162461bcd60e51b815260206004820181905260248201527f4f776e61626c653a2063616c6c6572206973206e6f7420746865206f776e6572604482015260640161051f565b610a358282604051806020016040528060008152506110f9565b600680546001600160a01b038381166001600160a01b0319831681179093556040519116919082907f8be0079c531659141344cd1fd0a4f28419497f9722a3daafe3b4186f6b6457e090600090a35050565b816001600160a01b0316836001600160a01b031603610fc65760405162461bcd60e51b815260206004820152601960248201527f4552433732313a20617070726f766520746f2063616c6c657200000000000000604482015260640161051f565b6001600160a01b03838116600081815260056020908152604080832094871680845294825291829020805460ff191686151590811790915591519182527f17307eab39ab6107e8899845ad3d59bd9653f200f220920489ca2b5937696c31910160405180910390a3505050565b61103e848484610ca6565b61104a8484848461112c565b610a6b5760405162461bcd60e51b815260040161051f9061197c565b606060006110738361122d565b600101905060008167ffffffffffffffff811115611093576110936115c1565b6040519080825280601f01601f1916602001820160405280156110bd576020820181803683370190505b5090508181016020015b600019016f181899199a1a9b1b9c1cb0b131b232b360811b600a86061a8153600a85049450846110c757509392505050565b6111038383611305565b611110600084848461112c565b6105c05760405162461bcd60e51b815260040161051f9061197c565b60006001600160a01b0384163b1561122257604051630a85bd0160e11b81526001600160a01b0385169063150b7a02906111709033908990889088906004016119ce565b6020604051808303816000875af19250505080156111ab575060408051601f3d908101601f191682019092526111a891810190611a0b565b60015b611208573d8080156111d9576040519150601f19603f3d011682016040523d82523d6000602084013e6111de565b606091505b5080516000036112005760405162461bcd60e51b815260040161051f9061197c565b805181602001fd5b6001600160e01b031916630a85bd0160e11b149050610c9e565b506001949350505050565b60008072184f03e93ff9f4daa797ed6e38ed64bf6a1f0160401b831061126c5772184f03e93ff9f4daa797ed6e38ed64bf6a1f0160401b830492506040015b6d04ee2d6d415b85acef81000000008310611298576d04ee2d6d415b85acef8100000000830492506020015b662386f26fc1000083106112b657662386f26fc10000830492506010015b6305f5e10083106112ce576305f5e100830492506008015b61271083106112e257612710830492506004015b606483106112f4576064830492506002015b600a83106103ec5760010192915050565b6001600160a01b03821661135b5760405162461bcd60e51b815260206004820181905260248201527f4552433732313a206d696e7420746f20746865207a65726f2061646472657373604482015260640161051f565b6000818152600260205260409020546001600160a01b0316156113c05760405162461bcd60e51b815260206004820152601c60248201527f4552433732313a20746f6b656e20616c7265616479206d696e74656400000000604482015260640161051f565b6000818152600260205260409020546001600160a01b0316156114255760405162461bcd60e51b815260206004820152601c60248201527f4552433732313a20746f6b656e20616c7265616479206d696e74656400000000604482015260640161051f565b6001600160a01b038216600081815260036020908152604080832080546001019055848352600290915280822080546001600160a01b0319168417905551839291907fddf252ad1be2c89b69c2b068fc378daa952ba7f163c4a11628f55a4df523b3ef908290a45050565b6001600160e01b03198116811461070657600080fd5b6000602082840312156114b857600080fd5b81356106b681611490565b60005b838110156114de5781810151838201526020016114c6565b50506000910152565b600081518084526114ff8160208601602086016114c3565b601f01601f19169290920160200192915050565b6020815260006106b660208301846114e7565b60006020828403121561153857600080fd5b5035919050565b80356001600160a01b038116811461155657600080fd5b919050565b6000806040838503121561156e57600080fd5b6115778361153f565b946020939093013593505050565b60008060006060848603121561159a57600080fd5b6115a38461153f565b92506115b16020850161153f565b9150604084013590509250925092565b634e487b7160e01b600052604160045260246000fd5b604051601f8201601f1916810167ffffffffffffffff81118282101715611600576116006115c1565b604052919050565b60008060006060848603121561161d57600080fd5b833567ffffffffffffffff8082111561163557600080fd5b818601915086601f83011261164957600080fd5b813560208282111561165d5761165d6115c1565b8160051b925061166e8184016115d7565b828152928401810192818101908a85111561168857600080fd5b948201945b848610156116ad5761169e8661153f565b8252948201949082019061168d565b97506116bc905088820161153f565b9550505050506116ce6040850161153f565b90509250925092565b600080604083850312156116ea57600080fd5b823591506116fa6020840161153f565b90509250929050565b60006020828403121561171557600080fd5b6106b68261153f565b6000806040838503121561173157600080fd5b61173a8361153f565b91506020830135801515811461174f57600080fd5b809150509250929050565b6000806000806080858703121561177057600080fd5b6117798561153f565b9350602061178881870161153f565b935060408601359250606086013567ffffffffffffffff808211156117ac57600080fd5b818801915088601f8301126117c057600080fd5b8135818111156117d2576117d26115c1565b6117e4601f8201601f191685016115d7565b915080825289848285010111156117fa57600080fd5b808484018584013760008482840101525080935050505092959194509250565b6000806040838503121561182d57600080fd5b6118368361153f565b91506116fa6020840161153f565b600181811c9082168061185857607f821691505b60208210810361187857634e487b7160e01b600052602260045260246000fd5b50919050565b6020808252602d908201527f4552433732313a2063616c6c6572206973206e6f7420746f6b656e206f776e6560408201526c1c881bdc88185c1c1c9bdd9959609a1b606082015260800190565b634e487b7160e01b600052603260045260246000fd5b60006001820161190157634e487b7160e01b600052601160045260246000fd5b5060010190565b6000835161191a8184602088016114c3565b83519083019061192e8183602088016114c3565b01949350505050565b60208082526025908201527f4552433732313a207472616e736665722066726f6d20696e636f72726563742060408201526437bbb732b960d91b606082015260800190565b60208082526032908201527f4552433732313a207472616e7366657220746f206e6f6e20455243373231526560408201527131b2b4bb32b91034b6b83632b6b2b73a32b960711b606082015260800190565b6001600160a01b0385811682528416602082015260408101839052608060608201819052600090611a01908301846114e7565b9695505050505050565b600060208284031215611a1d57600080fd5b81516106b68161149056fea264697066735822122064f183d5f148b8809dca99021bc8822c6a479acacc026837f2f0bf89792fe43d64736f6c63430008140033",
  "devdoc": {
    "events": {
      "Approval(address,address,uint256)": {
        "details": "Emitted when `owner` enables `approved` to manage the `tokenId` token."
      },
      "ApprovalForAll(address,address,bool)": {
        "details": "Emitted when `owner` enables or disables (`approved`) `operator` to manage all of its assets."
      },
      "Transfer(address,address,uint256)": {
        "details": "Emitted when `tokenId` token is transferred from `from` to `to`."
      }
    },
    "kind": "dev",
    "methods": {
      "approve(address,uint256)": {
        "details": "See {IERC721-approve}."
      },
      "balanceOf(address)": {
        "details": "See {IERC721-balanceOf}."
      },
      "burn(uint256)": {
        "details": "Burns `tokenId`. See {ERC721-_burn}. Requirements: - The caller must own `tokenId` or be an approved operator."
      },
      "getApproved(uint256)": {
        "details": "See {IERC721-getApproved}."
      },
      "isApprovedForAll(address,address)": {
        "details": "See {IERC721-isApprovedForAll}."
      },
      "name()": {
        "details": "See {IERC721Metadata-name}."
      },
      "owner()": {
        "details": "Returns the address of the current owner."
      },
      "ownerOf(uint256)": {
        "details": "See {IERC721-ownerOf}."
      },
      "renounceOwnership()": {
        "details": "Leaves the contract without owner. It will not be possible to call `onlyOwner` functions anymore. Can only be called by the current owner. NOTE: Renouncing ownership will leave the contract without an owner, thereby removing any functionality that is only available to the owner."
      },
      "safeTransferFrom(address,address,uint256)": {
        "details": "See {IERC721-safeTransferFrom}."
      },
      "safeTransferFrom(address,address,uint256,bytes)": {
        "details": "See {IERC721-safeTransferFrom}."
      },
      "setApprovalForAll(address,bool)": {
        "details": "See {IERC721-setApprovalForAll}."
      },
      "supportsInterface(bytes4)": {
        "details": "See {IERC165-supportsInterface}."
      },
      "symbol()": {
        "details": "See {IERC721Metadata-symbol}."
      },
      "tokenURI(uint256)": {
        "details": "See {IERC721Metadata-tokenURI}."
      },
      "transferFrom(address,address,uint256)": {
        "details": "See {IERC721-transferFrom}."
      },
      "transferOwnership(address)": {
        "details": "Transfers ownership of the contract to a new account (`newOwner`). Can only be called by the current owner."
      }
    },
    "version": 1
  },
  "userdoc": {
    "kind": "user",
    "methods": {},
    "version": 1
  },
  "storageLayout": {
    "storage": [
      {
        "astId": 138,
        "contract": "contracts/SupplyTransperencyToken.sol:SupplyTransperencyToken",
        "label": "_name",
        "offset": 0,
        "slot": "0",
        "type": "t_string_storage"
      },
      {
        "astId": 140,
        "contract": "contracts/SupplyTransperencyToken.sol:SupplyTransperencyToken",
        "label": "_symbol",
        "offset": 0,
        "slot": "1",
        "type": "t_string_storage"
      },
      {
        "astId": 144,
        "contract": "contracts/SupplyTransperencyToken.sol:SupplyTransperencyToken",
        "label": "_owners",
        "offset": 0,
        "slot": "2",
        "type": "t_mapping(t_uint256,t_address)"
      },
      {
        "astId": 148,
        "contract": "contracts/SupplyTransperencyToken.sol:SupplyTransperencyToken",
        "label": "_balances",
        "offset": 0,
        "slot": "3",
        "type": "t_mapping(t_address,t_uint256)"
      },
      {
        "astId": 152,
        "contract": "contracts/SupplyTransperencyToken.sol:SupplyTransperencyToken",
        "label": "_tokenApprovals",
        "offset": 0,
        "slot": "4",
        "type": "t_mapping(t_uint256,t_address)"
      },
      {
        "astId": 158,
        "contract": "contracts/SupplyTransperencyToken.sol:SupplyTransperencyToken",
        "label": "_operatorApprovals",
        "offset": 0,
        "slot": "5",
        "type": "t_mapping(t_address,t_mapping(t_address,t_bool))"
      },
      {
        "astId": 7,
        "contract": "contracts/SupplyTransperencyToken.sol:SupplyTransperencyToken",
        "label": "_owner",
        "offset": 0,
        "slot": "6",
        "type": "t_address"
      },
      {
        "astId": 2797,
        "contract": "contracts/SupplyTransperencyToken.sol:SupplyTransperencyToken",
        "label": "_nextTokenId",
        "offset": 0,
        "slot": "7",
        "type": "t_uint256"
      },
      {
        "astId": 2800,
        "contract": "contracts/SupplyTransperencyToken.sol:SupplyTransperencyToken",
        "label": "signers",
        "offset": 0,
        "slot": "8",
        "type": "t_array(t_address)dyn_storage"
      },
      {
        "astId": 2804,
        "contract": "contracts/SupplyTransperencyToken.sol:SupplyTransperencyToken",
        "label": "isSigner",
        "offset": 0,
        "slot": "9",
        "type": "t_mapping(t_address,t_bool)"
      },
      {
        "astId": 2810,
        "contract": "contracts/SupplyTransperencyToken.sol:SupplyTransperencyToken",
        "label": "hasSigned",
        "offset": 0,
        "slot": "10",
        "type": "t_mapping(t_bytes32,t_mapping(t_address,t_bool))"
      }
    ],
    "types": {
      "t_address": {
        "encoding": "inplace",
        "label": "address",
        "numberOfBytes": "20"
      },
      "t_array(t_address)dyn_storage": {
        "base": "t_address",
        "encoding": "dynamic_array",
        "label": "address[]",
        "numberOfBytes": "32"
      },
      "t_bool": {
        "encoding": "inplace",
        "label": "bool",
        "numberOfBytes": "1"
      },
      "t_bytes32": {
        "encoding": "inplace",
        "label": "bytes32",
        "numberOfBytes": "32"
      },
      "t_mapping(t_address,t_bool)": {
        "encoding": "mapping",
        "key": "t_address",
        "label": "mapping(address => bool)",
        "numberOfBytes": "32",
        "value": "t_bool"
      },
      "t_mapping(t_address,t_mapping(t_address,t_bool))": {
        "encoding": "mapping",
        "key": "t_address",
        "label": "mapping(address => mapping(address => bool))",
        "numberOfBytes": "32",
        "value": "t_mapping(t_address,t_bool)"
      },
      "t_mapping(t_address,t_uint256)": {
        "encoding": "mapping",
        "key": "t_address",
        "label": "mapping(address => uint256)",
        "numberOfBytes": "32",
        "value": "t_uint256"
      },
      "t_mapping(t_bytes32,t_mapping(t_address,t_bool))": {
        "encoding": "mapping",
        "key": "t_bytes32",
        "label": "mapping(bytes32 => mapping(address => bool))",
        "numberOfBytes": "32",
        "value": "t_mapping(t_address,t_bool)"
      },
      "t_mapping(t_uint256,t_address)": {
        "encoding": "mapping",
        "key": "t_uint256",
        "label": "mapping(uint256 => address)",
        "numberOfBytes": "32",
        "value": "t_address"
      },
      "t_string_storage": {
        "encoding": "bytes",
        "label": "string",
        "numberOfBytes": "32"
      },
      "t_uint256": {
        "encoding": "inplace",
        "label": "uint256",
        "numberOfBytes": "32"
      }
    }
  }
}